:020000040800F2
:10000000C03B00209D010008032D0008E5270008E3
:10001000012D0008CD0700082D3200080000000067
:1000200000000000000000000000000005010008C2
:10003000A10800080000000049010008912D0008F7
:10004000B7010008B7010008B7010008B7010008B0
:10005000B7010008B7010008B7010008B7010008A0
:10006000B7010008B7010008B701000889080008B7
:100070008D0800089D080008B7010008B7010008B6
:10008000B7010008B7010008B7010008B701000870
:10009000F5310008B7010008B7010008B7010008F2
:1000A000B7010008B7010008B7010008B701000850
:1000B000352E0008B7010008392E0008B7010008E6
:1000C000B7010008B7010008B7010008B701000830
:1000D000B7010008B7010008B7010008F1310008B6
:1000E000B7010008B7010008B7010008DFF810D019
:1000F00000F0F0FA00480047A93F0008AFF3008085
:10010000C03B0020224B19680868B0E8F00F80F36C
:100110000988BFF36F8F4FF0000080F311884EF015
:100120000D0E70470000000006480068006880F36C
:10013000088862B661B6BFF34F8FBFF36F8F00DFE1
:1001400000BF00BF08ED00E0EFF30980BFF36F8F41
:100150000F4B1A6820E9F00F106008B54FF05000FF
:1001600080F31188BFF34F8FBFF36F8F05F082FCD0
:100170004FF0000080F31188BDE808401968086856
:10018000B0E8F00F80F30988BFF36F8F704700BFAE
:1001900044000020EFF305807047000006488047C8
:1001A00006480047FEE7FEE7FEE7FEE7FEE7FEE75C
:1001B000FEE7FEE7FEE7FEE7332E0008ED0000084D
:1001C000202A04DB203A21FA02F00021704721FAAC
:1001D00002F3D040C2F12002914008431946704713
:1001E00040EA01039B0703D009E008C9121F08C0B9
:1001F000042AFAD203E011F8013B00F8013B521E39
:10020000F9D27047D2B201E000F8012B491EFBD2AF
:1002100070470022F6E710B513460A460446194611
:10022000FFF7F0FF204610BD30B50446002003461E
:1002300000E05B1C934203D2E05CCD5C401BF8D035
:1002400030BD2DE9FE4F804681EA0300C00F0C4609
:10025000009021F0004123F00045B8EB0200A941D5
:1002600005D24046214690461C460B46024623F0E6
:100270000040104347D0270DC7F30A00C3F30A51CB
:100280000290401A019040286BDAC3F3130040F447
:10029000801B0098924620B10023D2EB030A63EB47
:1002A0000B0B01985946C0F14002504600F094F9FA
:1002B00006460D4650465946019A00F09CF910EB4F
:1002C00008006141002487EA115284EAE7731A4367
:1002D00040D0009A62B3019A012A4FEA075215DC16
:1002E000001B61EB02014FF0004202EA0752CDE928
:1002F0000042001C41F5801132462B4600F09CF96B
:1003000003B0BDE8F08F40462146F9E7001B61EBE2
:100310000201001C41F5801300185B412018A2F572
:10032000001747EB030140EAD570B6196D4111E0A3
:100330006D084FEA360645EAC0754FEA0752001BC2
:1003400061EB0201001C41F5801149084FEA3000C1
:100350000019514132462B4603B0BDE8F04F00F082
:100360005CB90098012240000023D0EB020263EB4D
:10037000E073009821464FEAE074B8EB000061EBAF
:100380000401E9E783F000435BE781F0004158E7AF
:100390002DE9FE4F81EA030404F0004421F00041FE
:1003A00000944FF0000B23F0004350EA01045ED0AC
:1003B00052EA03045BD0C3F30A54C1F30A552C4438
:1003C000A4F2F3340194A0FB0254C1F3130141F4ED
:1003D0008011C3F3130343F4801301FB024400FBB9
:1003E000034E840A970A44EA815447EA8357A4FBE0
:1003F000076802958D0A05FB07854FEA932C04FBDD
:100400000C542705029D4FEA065847EA1637B5EB0C
:1004100008056EEB070C870E920E47EA811742EA39
:100420008312A7FB0201B6EB0B0164EB00042B0D5A
:1004300043EA0C335E1844EB1C50DA465146E7FBA6
:100440000201C5F313044FEA0B3343EA14534FEA96
:100450000432019C43EA0603A4F10C040294009CBC
:10046000CDE900B400F0E8F803B0BDE8F08F00205B
:100470000146F9E72DE9F04D81EA030404F0004B51
:1004800021F0004514464FF0000A23F0004150EAE5
:10049000050220D054EA01021DD0C5F30A570246D6
:1004A000C5F31303C1F31300C1F30A5640F48015DA
:1004B00043F48013A7EB0608101BD64608F2FD385C
:1004C00073EB050002D308F1010801E092185B41CB
:1004D000B8F1000F03DA00200146BDE8F08D0020DE
:1004E0004FF48011064684460EE0171B73EB050798
:1004F00005D3121B63EB050306434CEA010C4908C4
:100500004FEA300092185B4150EA0107EDD152EA00
:10051000030012D082EA040083EA0501084305D0F3
:10052000101BAB4106D20122002306E000224FF04F
:10053000004302E06FF0010253101AEB06004CEB8F
:10054000085110EB0A0041EB0B01BDE8F04D00F043
:1005500064B870B521F0004303430CD0C1F30A55D1
:100560000024D5EB040564EB0403D617AD1AB341A0
:1005700002DB0020014670BD201841EB025170BD26
:100580000EB540F2334102910021CDE900110A4637
:100590000B4600F051F803B000BD70B5C1F30A522C
:1005A00001F000450024C1F3130140F2FF3341F490
:1005B00080119A4201DA002070BD40F233439A4222
:1005C000A2F2334203DC5242FFF7FAFD00E0904012
:1005D0002C43F1D0404270BD202A04DB203A00FABF
:1005E00002F1002070479140C2F1200320FA03F38A
:1005F000194390407047202A06DBCB17203A41FA76
:1006000002F043EAE07306E041FA02F3D040C2F19F
:100610002002914008431946704710B5141E73F12B
:10062000000408DA401C41F1000192185B411A43B2
:1006300001D120F0010010BD2DE9F04D92469B46FE
:1006400011B1B1FA81F202E0B0FA80F220329046A4
:10065000FFF7C2FF04460F4640EA0A0041EA0B01D9
:1006600053465A46084313D0114653EA010019D0A5
:10067000C8F140025046FFF7A3FD05460E4650461E
:1006800059464246FFF7A8FF084305D0012004E081
:1006900020463946BDE8F08D0020054346EAE07665
:1006A0002C4337430A986305E40AA0EB08000022B4
:1006B000FD0A44EA47540A3002D500200146E9E722
:1006C000010510196941DDE9084500196941BDE8D6
:1006D000F04DA2E7064C074D06E0E06840F001034C
:1006E00094E8070098471034AC42F6D3FFF702FDB8
:1006F000A46B0008C46B000870B5044600688168EC
:10070000C943C90717D1816821F00101816000F058
:100710006FFF05460AE000BF00F06AFF401B022899
:1007200004D920688068C043C00706D0206880686C
:10073000C043C007F0D0002070BDA06A40F0100098
:10074000A062E06A40F00100E062012070BD00009C
:10075000F8B500260446009600688168C943C907B9
:100760002DD0816841F0010181601648164900686A
:10077000B0FBF1F000E0401E00900028FBD100F03B
:1007800037FF054616E000BF00F032FF401B02288D
:1007900010D920688068C043C0070BD0A06A40F021
:1007A0001000A062E06A40F00100E06284F824607A
:1007B0000120F8BD20688068C043C007E4D1002054
:1007C000F8BD00004000002040420F00FEE700009E
:1007D000084908B500228A600388C3F30A030B6046
:1007E000CA6043880B610A75021D6B46024800F01F
:1007F0002BFA08BDCC3500205401002008B5014675
:10080000084800236A46006805F05AFB0098002853
:1008100007D005494FF080500860BFF34F8FBFF3FA
:100820006F8F08BD2400002004ED00E00C4810B5D7
:100830004FF0FF320949006805F0EEFB18B910BD12
:10084000022003F051FC074800F058FB0028F7D0C5
:10085000BDE810400148FFF7BBBF0000B4350020E1
:10086000240000205401002030B504460020024638
:10087000044D04E0A35C4340521CE85C92B28A42FF
:10088000F8D330BD046A000802F0BABC02494FF048
:10089000FF30C96B486070479C02002004F0CCBD5B
:1008A000704772B6FEE70000F8B5002504460095D3
:1008B00090F8240001280BD0012084F82400204661
:1008C000FFF71AFF2046FFF743FF060002D050E073
:1008D0000220F8BDA06A20F4885040F00200A06217
:1008E000022000F055FF25490968B1FBF0F04000F7
:1008F00000E0401E00900028FBD12068816841F094
:100900000801816000F074FE074608E000F070FE08
:10091000C01B0A2803D920688068000715D4206806
:1009200080680007F2D42068816841F0040181608A
:1009300000F05EFE074612E000F05AFEC01B0A28D7
:100940000DD920688068400709D5A06A20F0020010
:1009500040F01000A06284F824500120F8BD206807
:1009600080684007E8D4A06A20F0020040F001004F
:10097000A06284F824503046F8BD000040000020FA
:10098000F8B50024009490F824202546012A12D0BE
:10099000012280F824204A681F23072A0DD2066806
:1009A000776B521E02EB820293409F430B68934089
:1009B0001F43776319E00220F8BD06680D2A0AD2AA
:1009C000376BD21F02EB820293409F430B68934028
:1009D0001F43376309E0F76A0D3A02EB8202934046
:1009E0009F430B6893401F43F7620A68072306681A
:1009F0000A2A0AD3F7680A3A02EB420293409F435D
:100A00008B6893401F43F76008E0376902EB4202AE
:100A100093409F438B6893401F4337610A68102AB5
:100A200001D0112A20D1124B02689A4217D1936843
:100A30001B0219D4936843F40003936009681029DA
:100A400012D10C490C4A0968B1FBF2F101EB8101AA
:100A5000490000E0491E00910029FBD104E0816AB1
:100A600041F020018162012480F824502046F8BD25
:100A7000002401404000002040420F002DE9F041D9
:100A80004FF0000704003D467ED0A06A002628B93A
:100A9000E66284F82460204600F07EF82046FFF7E6
:100AA0002BFEA16AC90600D420B1A06A40F0100054
:100AB000A06269E0A16A21F4885141F00201A162BB
:100AC0006268E169237B0A4347EA43010A43A1685C
:100AD0004FF48077B94209D0012907D05FF00001B7
:100AE00094F814C0BCF1010F02D00AE03946F7E7D0
:100AF000F3B1A36A43F02003A362E36A43F0010366
:100B0000E3622368D3F804C02CF4694C4CEA010C6E
:100B1000C3F804C021688B68DFF870C003EA0C03D7
:100B200013438B60A168B9420BD0012909D00CE0B6
:100B3000DFF85CC0A3690CEB43330B4343F4006163
:100B4000DFE7218A0D05A5F580152168CB6A23F41E
:100B500070032B43CB62216889680E4B1940914288
:100B600008D1E662A16A21F0020141F00101A1620F
:100B7000BDE8F081A06A20F0020040F01000A06201
:100B8000E06A40F00100E0620120F1E7FDF7E1FFDB
:100B900000E0FFFFFE0E1FFF70B586B00025064681
:100BA00000950195029503950068194988422DD159
:100BB0001849886940F400708861886900F4007001
:100BC0000490886940F0040088618869694600F0F3
:100BD0000400049018200090032001900E4800F0BB
:100BE0000DFC0F4C0D48C4E900058020C4E90250FB
:100BF000400020618000C4E905052046E56100F061
:100C0000CFFB08B1FFF74DFE3462666206B070BDDF
:100C1000002401400010024000080140080002408A
:100C20001001002090F82020012A07D0022A05D0C8
:100C3000416A41F4802141620120704700684269A5
:100C40000A43426100207047F0B590F820500468D4
:100C5000A468012D05D0022D03D0416A41F4802102
:100C600057E014F0406F01D1E5004FD5C4F30164A3
:100C70000125A5401D608D684FF4C0739DB1CE68FD
:100C800035434E6845EAC605066803EB0417F5517F
:100C90004FF4C275076805EB04150E697E51097D96
:100CA000012905D009E00E88CD6845EA4655EBE7F5
:100CB00001684E5946F480764E511179D5795679AE
:100CC00041EA056195792D0445EA062529434FF44B
:100CD000C676056806EB0416A9511178D57841EA65
:100CE0000561957852782D0445EA022211434FF4AC
:100CF000C475026805EB04155151006803EB04113B
:100D0000425842F0010242500020F0BD416A41F4D5
:100D1000001141620120F0BD10B590F8203002684A
:100D2000012B07D0022B05D0416A41F4802141629A
:100D3000012010BDD2F8000240F00100C2F800020C
:100D4000087D00F01F0301209840D2F81C32834335
:100D5000C2F81C32CB69B3B9D2F80C328343C2F863
:100D60000C328C894B6864F31F434C6902EBC4045A
:100D7000C4F840320C890B6864F31F434C6902EBE2
:100D8000C404C4F84432CB69012B16D1D2F80C321A
:100D90000343C2F80C320C884B6864F31F434C6960
:100DA00002EBC404C4F840320C89CB6864F31F43DF
:100DB0004C6902EBC404C4F844328B69002BD2F8AE
:100DC00004320FD053EA0003C2F804320B69002B3F
:100DD000D2F8143208D00343C2F81432096A012948
:100DE00004D008E08343EFE78343F5E7D2F81C1211
:100DF0000143C2F81C12D2F8000220F00100C2F830
:100E00000002002010BD704770B590F82040012C02
:100E100005D0022C03D0416A41F4802128E0046807
:100E200009B32469A40720D04FF4D874056804EBF3
:100E300001142D5915F00405956005682D591AD037
:100E4000ED08556005682C5904F00204D4604FF495
:100E5000DA74056804EB01142E5906F00F06082E0B
:100E60000CD308250DE0E468DCE7416A41F4001189
:100E70004162012070BD6D0D1560E3E72D5905F04D
:100E80000F05156105682D59C5F30725956105689E
:100E90002C59240C54614FF4DC72046802EB0112EB
:100EA000A4581C700468A458240A5C700468A458F0
:100EB000240C9C700468A258120EDA704FF4DE7293
:100EC000046802EB0112A4581C710468A458240A97
:100ED0005C710468A458240C9C710468A258120E1A
:100EE000DA71006829B1016941F020010161002037
:100EF00070BDC16841F02001C160F8E702460020E2
:100F000092F82010012901D002290CD111688A68B9
:100F1000520100D501208A68120100D5401C896861
:100F2000C90000D5401C70472DE9F05F05460068F8
:100F300000244669D0F804908768D0F80CB0D0F847
:100F400010A0D0F81880F10748D0F90714D001217B
:100F50008160B80703D5284600F01BFA0CE078073B
:100F600002D54FF4006407E0380702D54FF48054EF
:100F700002E0284600F00CFAF80516D529684FF46F
:100F800080708860B80503D5284600F004FA0CE0AC
:100F9000780502D544F4005407E0380502D544F43E
:100FA000804402E0284600F0F5F9F80316D52968D8
:100FB0004FF480308860B80303D5284600F0EDF97F
:100FC0000CE0780302D544F4004407E0380302D56E
:100FD00044F4803402E0284600F0DEF9300707D5FB
:100FE0005FEACB6004D52968102044F40074C8601F
:100FF00070074FF0080707D55FEA0B7004D5286823
:10100000C760284600F05AF9B00706D52868C068BE
:10101000800702D0284600F053F9700607D55FEA32
:10102000CA6004D52968102044F480640861B006C1
:1010300007D55FEA0A7004D528680761284600F0E2
:1010400077F9F00606D528680069800702D028469F
:1010500000F06FF9B00308D55FEAC96005D52968CB
:1010600010204860284600F065F9F00307D55FEAD4
:10107000097004D528684760284600F08FF93004CD
:1010800046D55FEA497040D5F00504D55FEAC870DF
:1010900001D044F00104B00504D55FEA887001D5A1
:1010A00044F00204700504D55FEA487001D544F0AD
:1010B0000404300529D518F0700F26D008F0700010
:1010C000402815D006DC102809D020280AD0302866
:1010D00016D10AE050280ED0602811D10EE044F05D
:1010E00008040DE044F010040AE044F0200407E096
:1010F00044F0400404E044F0800401E044F48074CF
:101100002868816921F070018161296804204860A4
:10111000002C05D0686A204368622846FFF773FEFA
:10112000BDE8F09F70B5040003D094F8200010B122
:1011300004E0012070BD204600F082F820680168BC
:1011400041F00101016000F053FA0546052604E074
:1011500000F04EFA401B0A2811D820684068C007EA
:10116000F6D02068016821F00201016000F040FA29
:1011700005460BE000F03CFA401B0A2806D9606ADD
:1011800040F40030606284F82060D2E72068406854
:101190008007EFD4207E0128206801683DD021F02F
:1011A00080010160607E01282068016838D021F04C
:1011B00040010160A07E01282068016833D021F041
:1011C00020010160E07E0128206801682ED041F0F6
:1011D00010010160207F01282068016829D021F0DA
:1011E00008010160607F01282068016824D021F097
:1011F00004010160D4E902010843D4E90412114357
:1012000008436168491E08432168C8610020606284
:10121000012084F82000002070BD41F08001C0E76B
:1012200041F04001C5E741F02001CAE721F010017B
:10123000CFE741F00801D4E741F00401D9E700000D
:1012400010B586B0002100910191029103910068D0
:10125000174988422AD11748C16941F00071C1611C
:10126000C16901F000710491816941F0040181615B
:101270008069114C00F0040004904FF4006000906D
:101280006946204600F0BAF8A014009002200190B0
:10129000032003906946204600F0B0F800220521A3
:1012A000142000F043FA142000F032FA06B010BD0A
:1012B0000064004000100240000801407047000038
:1012C0001FB5174A0168914229D1164A002101AB86
:1012D000FFF79AFD002822D112480023018AADF8B9
:1012E00002100288BDF8001062F30A01027A007B46
:1012F00062F3CD2160F38F310B48ADF8001003AAE3
:101300006946006804F0DCFD0398002807D007490F
:101310004FF080500860BFF34F8FBFF36F8F1FBD3A
:1013200000640040E43500202000002004ED00E0CF
:10133000704770477047000070B5044690F8200071
:10134000012804D0606A40F40020606218E00220A6
:1013500084F820002068016821F00101016000F09C
:1013600047F905460EE000BF00F042F9401B0A288D
:1013700008D9606A40F400306062052084F82000DB
:10138000012070BD20684068C007EDD1606270BD6B
:10139000704770477047704770477047704700004C
:1013A00030B528B308C8134914221944B1FBF2F12F
:1013B0008900C16310498163022141771A6843F6AD
:1013C000F0718A43D0E900142143D0E902452C434F
:1013D0002143046921434469214384692143114322
:1013E000196000214163012242770177084630BD30
:1013F000012030BDF8FFFDBF000002402DE9F84F8D
:10140000DFF8B8910024A9F1040B23460F2709F156
:10141000040AABF1040EC9E00125A5402A40AA4206
:101420007DD1674ED1F804C0ACEB0608B44532D08C
:1014300014DCBCF1030F3AD009DCBCF1000F2AD058
:10144000BCF1010F1CD0BCF1020F31D11DE0BCF189
:10145000110F17D0BCF1120F2AD119E0B8F5881F6F
:1014600019D006DCB8F5803F15D0B8F5801F1FD124
:1014700011E0B8F5001F0ED0B8F5041F18D10AE02E
:10148000CB6815E0CB681B1D12E0CB6808330FE07A
:10149000CB680C330CE08B682BB1012B4FF00803A9
:1014A00003D0456104E0042302E0056100E000236D
:1014B000FF2A01D8064601E000F104064FEA840540
:1014C00001D9A5F12005D6F8008007FA05FC28EA25
:1014D0000C0803FA05F548EA0508C6F800804D68CF
:1014E000ED0062D5374DAE6946F00106AE61AD69DB
:1014F00024F0030605F001050095334D06EB050CBD
:10150000DCF80850A607360F07FA06F825EA0805A2
:10151000DFF8B880404503D14FF0000817E044E001
:10152000DFF8AC80404502D14FF001080FE0DFF852
:10153000A480404502D14FF0020808E0DFF898800F
:10154000404502D14FF0030801E04FF0040808FACB
:1015500006F848EA0508CCF808804D68D9F800601C
:10156000ED024D4601D5164300E096432E604D68CE
:10157000DAF80060AD02554601D5164300E0964307
:101580002E604D68DBF80060AD035D4601D5164363
:1015900000E096432E604D68DEF80060ED0375466E
:1015A00001D5164300E096432E60641C0D682A4660
:1015B000E5407FF431AFBDE8F88F0000080401403A
:1015C000000011100010024000000140000801401E
:1015D000000C0140001001400014014080680840E8
:1015E00000D0012070470AB1016170470904FBE790
:1015F000014880687047000034000020024881687C
:10160000027811448160704734000020074810B50B
:10161000016841F010010160032000F0A7F80F20DD
:1016200000F006F800F050F8002010BD0020024045
:1016300030B505461F4887B0C16941F00401C1615A
:10164000C06906A900F00400009001A800F000FAAB
:101650000498B0B100F01CFA40001749174AB0FBDB
:10166000F1F11748491E0260416040F2E732002163
:10167000C0E903218160816100F08EFC040003D089
:1016800015E000F005FAE8E70D4800F0D3FC04008F
:101690000DD11E2000F03CF8102D07D20022294663
:1016A0001E2000F043F80748056000E0012407B061
:1016B000204630BD0010024040420F0000080040AC
:1016C00024030020380000200F4808B5816941F04C
:1016D00001018161816901F001010091C16941F05D
:1016E0008051C161C069002200F0805000900F213C
:1016F000901E00F01BF80548416821F0E06141F0C0
:101700000071416008BD000000100240000001406F
:10171000002809DB00F01F020121914040098000F0
:1017200000F1E020C0F8001170470000F0B40E4B4B
:101730001B680C46C3F30223C3F10705042D00D92F
:101740000425191D072901D2002300E0DB1E012614
:1017500006FA05F1491E214099409E40761E16402A
:101760003143F0BC01F063BD0CED00E0064900F030
:10177000070208684FF6FF03184040EA0220034AB8
:1017800010430860704700000CED00E00000FA050F
:1017900010B501460020234C012922D0022938D05F
:1017A00010291DD161682268D20119D51E48C1F3E4
:1017B0008342C903805C0AD561681B4AC1F340417A
:1017C000921E515C194AB2FBF1F1484301E01849FD
:1017D00048436168490203D440000321B0FBF1F0A3
:1017E00010BD226AC2F30121012903D1920701D55C
:1017F000C80310BD022905D1626A920702D549F6D5
:10180000404010BD0329FCD121688903F9D509485E
:1018100010BD00F04DF96168C1F38131491C4900E8
:10182000DCE7000000100240B8690008001BB700A8
:1018300000093D00366E01002DE9F84305460078A9
:10184000354CC00754D0E0690026C00008D4E069D8
:1018500040F08050E061E069012600F08050009087
:101860002E480168C90512D40168804641F4807190
:101870000160FFF7BDFE074605E000BFFFF7B8FEB9
:10188000C01B642823D8D8F80000C005F6D5206A0C
:1018900010F4407021D0A98801F4407181421CD01D
:1018A000206A1F49012220F440700A6000220A6069
:1018B0002062C00711D0FFF79BFE074641F288382F
:1018C00008E000BFFFF794FEC11B414502D9032089
:1018D000BDE8F883206A8007F4D5206A696820F49F
:1018E0004070084320621EB1E06920F08050E06142
:1018F0002878800705D56068A96820F4404008432F
:1019000060602878C00605D56068E96820F480002A
:10191000084360600020DBE70010024000700040D8
:10192000400442422DE9F0470F46050061D0434E86
:10193000306800F00700B84209D2306820F0070094
:1019400038433060306800F00700B84251D1286851
:101950003B4C810712D5400703D5606840F4E06036
:1019600060602878000703D5606840F460506060CC
:101970006068A96820F0F000084360602878C0071C
:1019800028D06868012810D02168022810D0890763
:1019900000292EDA616821F0030101436160FFF73D
:1019A00027FE804641F288390DE021688903EFE780
:1019B0008901EDE7FFF71CFEA0EB0801494502D9BC
:1019C0000320BDE8F0876068696800F00C00B0EBA8
:1019D000810FEFD1306800F00700B8420BD93068B2
:1019E00020F0070038433060306800F00700B8424C
:1019F00001D00120E5E72878400705D56068E9684F
:101A000020F4E060084360602878000706D560682D
:101A1000296920F4605040EAC100606000F058F885
:101A20006168084AC1F30311515CC8400649086067
:101A300006480068FFF7FCFD0020C2E700200240D6
:101A400000100240C8690008400000203800002053
:101A50000F2202600C4A536803F00303436053688B
:101A600003F0F0038360536803F4E063C3605268DB
:101A70004FF4E06303EAD20202610448006800F018
:101A8000070008607047000000100240002002407C
:101A90000448054900684968044AC1F30221515CC1
:101AA000C84070474000002000100240D86900087C
:101AB0000448054900684968044AC1F3C221515CE1
:101AC000C84070474000002000100240D86900085C
:101AD0000F4A516801F00C00042803D0082803D0F5
:101AE0000C4870470C4870470C48C1F38343C90346
:101AF000C05C0AD55168094AC1F34041921E515C4D
:101B0000054A5043B0FBF1F0704705494843704720
:101B10000010024000127A00001BB700A6690008FE
:101B200000093D002DE9F84F040070D02078C04D29
:101B3000C00749D06868C0F38100012807D06868F1
:101B4000C0F38100022809D16868C00306D528685F
:101B5000800339D560680028E7D035E06068B0F5CB
:101B6000803F0BD010B1B0F5A02F11D0286820F421
:101B700080302860286820F4802002E0286840F443
:101B800080302860606890B1FFF732FD06460AE0B9
:101B9000286840F480202860F0E700BFFFF728FDA8
:101BA000801B642873D828688003F7D50CE0FFF702
:101BB0001FFD064605E000BFFFF71AFD801B6428E5
:101BC000F0D828688003F7D420789A4E80074FF029
:101BD00001094FF0000839D5686810F00C0F07D0E4
:101BE0006868C0F38100022809D16868C00306D480
:101BF0002868800714D52069012808D110E02069E1
:101C0000B0B1C6F80090FFF7F3FC074605E00AE123
:101C1000FFF7EEFCC01B0228C4D828688007F7D560
:101C20002868616920F0F80040EAC10028600DE0F2
:101C3000C6F80080FFF7DCFC074604E0FFF7D8FC9D
:101C4000C01B022823D828688007F7D42078000713
:101C50002CD57948A169D9B1C0F80090FFF7C8FC2C
:101C6000074604E0FFF7C4FCC01B02280FD8686ACF
:101C70008007F7D571484FF4FA510068B0FBF1F0D6
:101C8000009000BF0098411E0091FAD20EE080E063
:101C9000C0F80080FFF7ACFC074604E0FFF7A8FCA3
:101CA000C01B022875D8686A8007F7D420784007DF
:101CB00060D5E8690027C00008D4E86940F080508A
:101CC000E861E869012700F0805000905C480168F5
:101CD000C90513D40168834641F480710160FFF7A0
:101CE00087FC824606E000BFFFF782FCA0EB0A00FB
:101CF00064284ED8DBF80000C005F5D5E06801285F
:101D00000AD008B1052813D0286A20F00100286203
:101D1000286A20F0040002E0286A40F001002862EE
:101D2000E06841F2883B98B1FFF762FC82460BE025
:101D3000286A40F004002862EEE700BFFFF758FC75
:101D4000A0EB0A0159455AD8286A8007F6D50CE05D
:101D5000FFF74EFC824605E0FFF74AFCA0EB0A01C4
:101D600059454CD8286A8007F6D41FB1E86920F09D
:101D70008050E861E06988B36968C1F38101022994
:101D800044D00228C6F8608004D0FFF731FC044636
:101D900038E034E0FFF72CFC074604E0FFF728FCAE
:101DA000C01B02282BD828688001F7D4206AB0F520
:101DB000803F05D16868A16820F40030084368605E
:101DC000D4E908010843696821F474110843686084
:101DD000C6F86090FFF70CFC044606E025E000BF63
:101DE000FFF706FC001B022809D828688001F7D5F8
:101DF0001BE000BFFFF7FCFB001B022802D90320F9
:101E0000BDE8F88F28688001F4D40EE00128F7D0EF
:101E10006868226A00F48031914204D1616A00F45A
:101E20007010884201D00120EAE70020E8E70000B6
:101E30000010024000004242800442424000002064
:101E40000070004010B590F83C20012A22D00122F9
:101E500080F83C20CA688C6822F4407222434C68A7
:101E600022F4806222430C6822F4006222430C694F
:101E700022F4805222434C6922F400522243C96961
:101E8000002322F480420A4301684A6480F83C300F
:101E9000002010BD022010BD70B590F83C20012A32
:101EA00026D0012480F83C40022280F83D200368BF
:101EB0005A689D6822F070060A6832435A600D4BDA
:101EC00002689A4208D0B2F1804F05D00A4B9A427C
:101ED00002D00A4B9A4204D1496825F08003194385
:101EE000916080F83D40002180F83C10084670BDAC
:101EF000022070BD002C014000040040000800409A
:101F000010B50446022249B104290ED0082913D085
:101F100094F84500012816D0012010BD94F8420025
:101F20000128F9D184F842200FE094F843000128F9
:101F3000F2D184F8432008E094F844000128EBD162
:101F400084F8442001E084F845200422206800F051
:101F5000C6FF2068416C41F4004141640B49206890
:101F6000884208D0B0F1804F05D00949884202D09C
:101F70000849884204D1816801F00701062903D08D
:101F8000016841F001010160002010BD002C0140FA
:101F9000000400400008004010B5040003D094F88D
:101FA0003D0010B107E0012010BD002084F83C0086
:101FB000204600F01FF8022084F83D00211D206813
:101FC00000F04AFF012084F8460084F83E0084F8BF
:101FD0003F0084F8400084F8410084F8420084F80F
:101FE000430084F8440084F8450084F83D00002054
:101FF00010BD000008B50C4A01680C48914207D199
:10200000816941F400618161806900F4006009E048
:10201000074A914207D1C16941F00201C161C0691B
:1020200000F00200009008BD002C014000100240AA
:102030000004004090F83D10012901D001207047B4
:10204000022180F83D100168CA6842F00102CA60AE
:1020500000680B49884208D0B0F1804F05D009498B
:10206000884202D00849884204D1816801F0070102
:10207000062903D0016841F001010160002070478A
:10208000002C0140000400400008004070B50446E8
:1020900090F83C000025012817D0012684F83C6008
:1020A000022084F83D002068826822F0770222F442
:1020B0007F4282600868502838D00DDC20284FD03D
:1020C00005DC90B3102811D14AE0022070BD302801
:1020D00046D040280AD13BE060282FD070280DD090
:1020E000B0F5805F03D0B0F5005F12D0012584F811
:1020F0003D60002084F83C00284670BDCB68D1E9E3
:102100000121206800F0F8FE2068816841F0770125
:1021100009E0CB68D1E90121206800F0EDFE2068DC
:10212000816841F480418160E1E719E0CA6849684B
:10213000206800F095FF5021206806E0CA684968D1
:10214000206800F0CBFF6021206800F0DFFECEE7C2
:10215000CA684968206800F083FF40212068F4E7DE
:10216000226801461046F0E72DE9F041054690F857
:102170003C0000260C46012810D0012085F83C00C8
:1021800072B1042A1CD0082A2CD00C2A50D0012667
:10219000002085F83C003046BDE8F0810220FBE7D6
:1021A000D4E90012E368286800F06CFF28688169B0
:1021B00021F00C01816128688169A26811430FE058
:1021C000D4E90012E368286800F09AFF2868816962
:1021D00021F44061816128688169A26841EA022195
:1021E0008161D5E72868D4E9002C277B036A016A5E
:1021F00021F480710162C16923F4007321F00301AD
:1022000041EA0C0121F0F00C39074FF400774CEA59
:10221000116107EA02221A43C16102622868C1699A
:1022200021F00C01C1612868C169A26811432BE04B
:102230002868D4E90021E768036AD0F820C02CF4AC
:10224000805CC0F820C0D0F81CC023F400532CF4EC
:10225000407C4CEA012121F4704C4FF6FF7101EAF9
:1022600007314FF4005741EA0C0107EA02321A43E2
:10227000C16102622868C16921F44061C1612868B6
:10228000C169A26841EA0221C16181E710B5040079
:1022900003D094F83D0010B107E0012010BD0020EC
:1022A00084F83C00204600F01FF8022084F83D002E
:1022B000211D206800F0D0FD012084F8460084F83C
:1022C0003E0084F83F0084F8400084F8410084F820
:1022D000420084F8430084F8440084F8450084F800
:1022E0003D00002010BD000000B585B00021009128
:1022F0000191029103910068B0F1804F1ED1104806
:10230000C16941F00101C161C16901F0010104919C
:10231000816941F0040181618069694600F004002F
:102320000490062000900748FFF768F80022052176
:102330001C20FFF7FBF91C20FFF7EAF905B000BDF0
:10234000001002400008014030B50446002551B19C
:1023500004290DD0082910D094F8410094F84520A4
:10236000012811D10EE094F83E0094F84220F7E7DE
:1023700094F83F0094F84320F2E794F8400094F872
:102380004420EDE7012A01D0012030BD022059B1DF
:10239000042912D0082919D084F8410084F8450096
:1023A0000C2938D0012534E084F83E0084F842003E
:1023B0002068C26842F0020210E084F83F0084F80E
:1023C00043002068C26842F0040207E084F840003D
:1023D00084F844002068C26842F00802C26001220A
:1023E000206800F06FFD0E492068884208D0B0F1E7
:1023F000804F05D00B49884202D00B49884204D156
:10240000816801F00701062903D0016841F001014C
:102410000160284630BD2068C26842F01002DDE746
:10242000002C0140000400400008004070B586B058
:102430000021009101910291039100681C4A1D49FD
:10244000022401251C4E90420ED1886940F00800FC
:1024500088618869694600F0080004904FF4C04024
:10246000CDE9000403951EE0144A90421ED188690C
:1024700040F004008861886900F0040004908869D5
:1024800040F0080088618869694600F008000490FF
:102490008020CDE900040A480394FEF7AFFFCDE9A0
:1024A0000054694603953046FEF7A8FF06B070BD9C
:1024B000002C014000100240000C014000040040CC
:1024C0000008014070B5044690F83C0000260D4617
:1024D00001280FD0012084F83C006AB1042A1DD0E5
:1024E000082A2FD00C2A3FD00126002084F83C0077
:1024F000304670BD022070BD206800F00FFD2068DE
:10250000816941F0080181612068816921F004013D
:102510008161206881692A69114311E0206800F017
:1025200025FD2068816941F400618161206881692D
:1025300021F480618161206881692A6941EA022170
:102540008161D2E7206800F03DFD2068C16941F05B
:102550000801C1612068C16921F00401C1612068DE
:10256000C1692A69114311E0206800F057FD206815
:10257000C16941F40061C1612068C16921F48061D1
:10258000C1612068C1692A6941EA0221C161ACE7E1
:1025900010B5040003D094F83D0010B107E001200D
:1025A00010BD002084F83C00204600F01EF80220F8
:1025B00084F83D00211D206800F04EFC012084F8C5
:1025C000460084F83E0084F83F0084F8400084F818
:1025D000410084F8420084F8430084F8440084F801
:1025E000450084F83D00002010BD704710B504463A
:1025F000022249B104290ED0082913D094F84100D1
:10260000012816D0012010BD94F83E000128F9D110
:1026100084F83E200FE094F83F000128F2D184F8BE
:102620003F2008E094F840000128EBD184F84020D6
:1026300001E084F841200122206800F043FC0F49AA
:102640002068884203D1426C42F400424264206810
:10265000884208D0B0F1804F05D00949884202D0A5
:102660000849884204D1816801F00701062903D096
:10267000016841F001010160002010BD002C014003
:10268000000400400008004000680349884201D16E
:10269000FEF7B4BF704700000008004070B50400AA
:1026A00004D094F84100002510B106E0012070BD6F
:1026B00084F84050204600F023F8242084F841009C
:1026C0002068C16821F40051C160204600F034FD4B
:1026D0002068016921F4904101612068416921F07D
:1026E0002A0141612068C16841F40051C1606564FC
:1026F000202084F8410084F842006563002070BD0A
:102700002DE9F04186B0002406460094019402941D
:10271000039400682E49884256D12E48C16941F47D
:102720008021C161C16901F480210491816941F076
:10273000080181618069284D00F0080004904FF481
:102740008060009002200190032003906946284693
:10275000FEF754FEE814CDE90004694628460294C9
:10276000FEF74CFE1E4D1D484FF0800801C510209D
:10277000A5E81101070245F8104919486C61C5E93F
:102780000647FEF70DFE08B1FEF78BF8B5636E62E3
:10279000134D124844351430C5E90004C5E9024818
:1027A0002C616C61C5E906472846FEF7F9FD08B1C2
:1027B000FEF777F8F5630022062127206E62FEF708
:1027C000B5FF2720FEF7A4FF06B0BDE8F0810000AA
:1027D0000048004000100240000C01401C00024074
:1027E0009C020020FEE700003EB500211C4800913D
:1027F00001911A4A0291026092158260017301757B
:1028000003244FF460220461C2614160FEF736F98F
:1028100008B1FEF746F80120CDE9004007200290FC
:1028200069460F48FEF7ACF808B1FEF73AF8042005
:1028300000900220019069460948FEF7A1F808B10E
:10284000FEF72FF81020CDE9000469460448FEF792
:1028500097F8002801D0FEF724F83EBD002401407F
:10286000E0000020114810B50F49016009214160C6
:1028700000214FF08072C0E902124FF4E0220261A1
:102880004FF4C00242610176417601228276C17620
:1028900002774277FEF746FC002803D0BDE81040DF
:1028A000FDF7FFBF10BD0000006400405401002090
:1028B000114808B5416941F00101416140690022B8
:1028C00000F00100009006210B20FEF72FFF0B20E7
:1028D000FEF71EFF002206210C20FEF727FF0C202A
:1028E000FEF716FF002206210D20FEF71FFFBDE8B0
:1028F00008400D20FEF70CBF0010024010B52A481A
:1029000001F082FC294C284A0021A06210320120EB
:1029100001F0F4FC244AE06220320021012001F0A1
:10292000EDFC2063E16AE9B3E0B31F4A0C21303AC1
:10293000052001F02FFC1C4A2062183A0C211420BB
:1029400001F028FC6062216A0029FDD00028FDD03A
:10295000174A0021174801F061FD154AA060243292
:102960000021154801F05AFD114AE060483200216B
:10297000124801F053FD0E4A20616C3200211048CC
:1029800001F04CFD084A6061783A00210D4801F0E1
:1029900045FD054AA061543A00210B4801F03EFD77
:1029A000E06110BDFFE7FEE7746900080000002049
:1029B0006C680008112D0008052D0008352D000851
:1029C000512D0008752D00080B2D00082DE9F0434E
:1029D00085B00024374800940194029403948169DF
:1029E00041F010018161816901F010010491816958
:1029F00041F020018161816901F020010491816928
:102A000041F004018161816901F00401049181694F
:102A100041F0080181618069DFF89C8000F00800C6
:102A20004FF480570490002239464046FEF7DBFD04
:102A3000DFF888900022F9104846FEF7D4FD012205
:102A400091024846FEF7CFFD4FF46040CDE9000407
:102A500069461B480294FEF7D1FC0125CDE90054DC
:102A6000694648460295FEF7C9FC0226CDE9006496
:102A7000694640460294FEF7C1FC00970396CDE9F3
:102A8000015469464046FEF7B9FC2802CDE900042E
:102A9000694648460294FEF7B1FC4FF4C060CDE9A8
:102AA0000005CDE9024669464846FEF7A7FC05B099
:102AB000BDE8F08300100240000C01400008014016
:102AC0000010014010B596B000240F94109411949A
:102AD000129413941C2168461494FDF79AFB20214C
:102AE00007A8FDF796FB2D482B4901604721C0E957
:102AF000011440F2E731C0E903148021C0E9054127
:102B0000FFF74AFA08B1FDF7CCFE4FF480500F9062
:102B10000FA92248FFF7BAFA08B1FDF7C2FE1F4815
:102B2000FFF736FD08B1FDF7BCFE139413A91B484F
:102B30001494FFF7B1F908B1FDF7B3FE60200090DF
:102B40004620CDE9010403940494059400226946CB
:102B500012480694FFF7B6FC08B1FDF7A2FE042266
:102B600069460E48FFF7AEFC08B1FDF79AFE0794E0
:102B7000089409944FF400500A94CDE90B4007A93A
:102B800006480E94FFF75EF908B1FDF78AFE034888
:102B9000FFF74CFC16B010BD002C01407C0100205A
:102BA00010B586B000241C48059404940094019448
:102BB00002944FF08041039401604721C0E9011461
:102BC0004FF6FF71C0E9031480218161FFF75EFBBE
:102BD00008B1FDF766FE049404A90F480594FFF7B9
:102BE0005BF908B1FDF75DFE0120CDE900400294DC
:102BF0000422694608480394FFF7B6FA08B1FDF7C6
:102C000050FE082269460448FFF7AEFA002801D0BA
:102C1000FDF747FE06B010BDC401002010B58EB010
:102C200000240794089409940A940B941C21684684
:102C30000C94FDF7EEFA2348214901604721C0E9D1
:102C4000011440F2E731C0E9031480218161FFF7EC
:102C5000A3F908B1FDF725FE4FF48050079007A9AE
:102C60001848FFF713FA08B1FDF71BFE1548FFF7E8
:102C70008FFC08B1FDF715FE0B940BA911480C94BD
:102C8000FFF70AF908B1FDF70CFE6020CDE900045A
:102C90000294042269460B480494FFF713FC08B120
:102CA000FDF7FFFD082269460648FFF70BFC08B157
:102CB000FDF7F7FD0348FFF7B9FB0EB010BD0000AC
:102CC000000400400C0200200C4810B50A490160C5
:102CD0004FF416514160002181600C22C160C0E9AF
:102CE00004128161C161FFF7D9FC002803D0BDE85F
:102CF0001040FDF7D6BD10BD004800405402002032
:102D0000FEE7FEE702F098FAFCE7FDF78FFDFCE72F
:102D100003F0C8FB0649086000F06CFB00F05CFCA7
:102D200001F0D2F90521024802F088FDF4E7000025
:102D30000000002005480021C06A01F0A5FA02F059
:102D40008DFB00BF02F094F8FCE7000000000020BB
:102D500003F0A8FB064948600A2001F0C5F900BF4E
:102D600002F0D6F802480121001D02F067FDF7E7E6
:102D70000000002005480021006B01F085FA00F0FA
:102D8000A7FA00BF00F072FAFCE700000000002084
:102D900010B5502080F31188BFF34F8FBFF36F8FB2
:102DA00003F086FB18B104494FF080500860002002
:102DB00080F3118810BD000004ED00E030B593B041
:102DC00028216846FDF725FA14210AA8FDF721FA03
:102DD000002501200F9510951195010412958DE89D
:102DE000230004900005CDE90810022407946846EA
:102DF000FEF798FE08B172B6FEE70AA90F2081E837
:102E000031004FF48060CDE90D0502210AA8FEF7DC
:102E100089FD08B172B6FEE74FF4004011900F949F
:102E20000FA8FEF709FD002801D072B6FEE713B027
:102E300030BD704702F06CBA10B5064C20680069CE
:102E4000C00702D02046FFF71FFC21680020086160
:102E500010BD000024030020F0B50268164B174C8B
:102E6000174D4FF08047984205D0B84203D0A0429A
:102E700001D0A84203D122F070064A68324398423A
:102E800005D0B84203D0A04201D0A84203D122F419
:102E90004074CA6822434C6922F0800222430260D7
:102EA0008A68C2620A688262984201D10969016334
:102EB00001214161F0BD0000002C014000040040F0
:102EC0000008004010B501F01F030121046A994079
:102ED0008C430462016A9A401143016210BD10B52F
:102EE00001F01F030421046A99408C430462016AC3
:102EF0009A401143016210BD10B5846842EA032272
:102F000024F47F440A432243826010BD826822F089
:102F100070020A4342F007018160704730B5036ACE
:102F2000026A22F0010202624268846924F0730599
:102F30000C682C4323F002058B682B430A4DA842F2
:102F40000BD123F00805CB6822F440722B434D6966
:102F500023F0040315438A692A4342608461496867
:102F60004163036230BD0000002C014030B5026AAD
:102F7000036A23F010030362436884690D6824F434
:102F8000E64444EA05248D6822F0200242EA051254
:102F90000B4DA8420ED1CD6822F0800242EA051204
:102FA0004D6923F4406343EA85038D6922F04002B2
:102FB00043EA85034360846149688163026230BDEE
:102FC000002C014030B5036A026A22F4807202626A
:102FD0004268C46923F4007324F073050C682C4321
:102FE0008D6843EA05230C4DA8420ED1CD6823F429
:102FF000006343EA05234D6922F4405242EA051278
:103000008D6923F4806342EA05124260C461496815
:10301000C163036230BD0000002C014030B5046A7A
:10302000026A22F4805202624268C3690D6823F486
:10303000E64343EA05238D6824F4005444EA05344A
:10304000064DA84204D14D6922F4804242EA85121D
:103050004260C36149680164046230BD002C0140D4
:1030600010B5036A046A24F001040462846924F040
:10307000F00444EA021423F00A020A438461026263
:1030800010BD000070B5056A046A24F001040462F2
:1030900084690F4EB04208D0B0F1804F05D00D4E7C
:1030A000B04202D00C4EB04203D124F003041443CA
:1030B00001E044F001041A0724F0F00444EA12622B
:1030C00025F00A0301F00A0119438261016270BD13
:1030D000002C0140000400400008004010B5036AC5
:1030E000046A24F010040462846923F0A00324F429
:1030F000704444EA023243EA01118261016210BD68
:1031000030B5046A056A25F010050562856925F465
:10311000407545EA022222F470454FF6FF7202EA3A
:10312000033224F0A0032A43A02404EA0111194326
:103130008261016230BD000070B50446006801691B
:10314000E26821F44051114301612169A0680843FC
:10315000616908432168CA6841F20C639A430243DB
:10316000CA6020684169A26921F44071114341613C
:103170001E492068884202D1FEF79AFC01E0FEF762
:1031800087FC00EBC00101EB001260686421800045
:10319000B2FBF0F3B3FBF1F36FF018067343B2FB2D
:1031A000F0F5B2FBF0F605EB8305322303EB0515D2
:1031B000B5FBF1F5B6FBF1F605F0F00505EB0615EC
:1031C000B2FBF0F6B2FBF0F0B0FBF1F06FF01802DA
:1031D000504306EB800003EB0010B0FBF1F02168D8
:1031E00000F00F002844886070BD000000380140E6
:1031F00002F00CB90148FDF797BE00005401002011
:103200000848C06B0168890707D5416841F0020191
:1032100041600548006801F0C9B84FF0FF314160D6
:10322000704700001001002030000020FEE7090771
:10323000090E002804DB00F1E02080F8001470473C
:1032400000F00F0000F1E02080F8141D704702E04C
:1032500008C8121F08C1002AFAD170477047002021
:1032600001E001C1121F002AFBD1704770B514485C
:103270004FF0FF31006801F007F800281ED1124C12
:10328000104AA11D34F8105052F820302B4431F868
:1032900010505B1B42F82030DB0821F81030401C36
:1032A0000328EFDB09480A8802804988418006200C
:1032B00000F01AFFBDE8704000F00AB870BD0000D1
:1032C00030000020C0350020BC0000200C3600205B
:1032D0000F4801680A6822F001020A6002680321AF
:1032E00051600C4903680A684C329A6003680A4AC4
:1032F000DA600068026842F0010202600A68002099
:1033000010600868816841F48001816070470000A6
:1033100010010020E0000020BC00002010B5044691
:103320004FF47A7041436420B1FBF0F081B2206821
:10333000A38800220068BBB1042B17D0082B17D03C
:103340000264E088B0B1042818D00828206800681A
:1033500018D00164A1882068FFF748F9E188206847
:10336000BDE81040FFF742B94263EAE78263E8E74D
:10337000C263E6E7206800684163EBE72068006805
:103380008163E7E7C163E5E710B504464FF47A705F
:1033900041436420B1FBF0F081B22068A28800684C
:1033A000C2B1042A18D0082A18D00164E18800208C
:1033B000B1B1042918D008292168096818D0086417
:1033C000A1882068FFF712F9E1882068BDE8104065
:1033D000FFF70CB94163E9E78163E7E7C163E5E71C
:1033E000216809684863EBE7216809688863E7E7B3
:1033F000C863E5E72DE9F041434CE07901287DD829
:10340000607B424E0027424D01280BD1394667733D
:103410002F706F70A6F1080000F080F869783046D0
:1034200000F07CF83B480088B0F5C87F04D92772CB
:1034300067722F706F7009E037480121D0F80421BE
:1034400022B32172D0F8080110B36172207A2F4F95
:10345000083FF8B101211B2001F034FEA07A10B121
:10346000A079E1796854E079A179285C884204D296
:10347000E07928440178491C0170E079295CE07901
:1034800007EBC000BDE8F041FFF77EBF2772D9E728
:103490006772DBE7607AD8B101211B2001F012FED0
:1034A000A07A10B1A079E1796854E079A179285C1B
:1034B000884204D2E07928440178491C0170E079FF
:1034C000295CE07907EBC000BDE8F041FFF726BFBB
:1034D00000211B2001F0F6FD287808B1401E28705D
:1034E000687808B1401E687008482978083800F0EC
:1034F00015F869783046BDE8F04100E001E000F0E1
:103500000DB8BDE8F08100000C360020E869000825
:10351000D2000020C80000203433002070B50446DB
:10352000828800680068FAB1042A1FD0082A1FD0D8
:10353000056C0023F5B17AB3042A3FD0082A3FD0A6
:103540000164E08848B3042840D008282068006857
:1035500040D00364A1882068FFF748F8E18820681C
:10356000BDE87040FFF742B8456BE2E7856BE0E7E6
:10357000C56BDEE772B1042A10D0082A10D00364AC
:10358000E08878B1042811D008282068006811D09C
:103590000164DFE74363F3E70EE013E08363EFE7E3
:1035A000C363EDE7206800684163D3E720680068E3
:1035B0008163CFE7C163CDE74163C2E78163C0E7C1
:1035C000C163BEE7206800684363C3E72068006802
:1035D0008363BFE7C363BDE72DE9F84F5F4C052068
:1035E000A16801F06FFD0620616801F06BFD5C4D84
:1035F0000C20A96801F066FD0D20696801F062FDEC
:10360000E17B0A2001F05EFDE97B0B2001F05AFD11
:1036100000F026FC0146012001F054FD514F524CB0
:10362000D7F80001012815D0217B082001F04AFDC0
:103630006188092001F046FD4C4D287800287DD096
:103640000024A5F59269A5F53A7AA5F2065BA5F1E5
:103650006A0879E0E17A082001F034FD2188E8E782
:103660002E19707818F800108B0772D03AF810C035
:1036700053460CF1050C1FFA8CFC2AF810C0CA073F
:1036800025D01A4639F810309C4520D321F0080186
:1036900008F80010002122F810101222ABF80420C4
:1036A000ABF8060057F82000CBF8080031480B466D
:1036B0006A462F49006802F003FC009838B12E4991
:1036C0004FF080500860BFF34F8FBFF36F8F70785B
:1036D00018F8002011072DD509EB40033AF810C067
:1036E000B3F8D4309C452DD322F0080208F800200E
:1036F00000222AF810200E22ABF80420ABF80600B6
:1037000057F82000CBF808001A4800236A461849E9
:10371000006802F0D5FB009838B117494FF080508F
:103720000860BFF34F8FBFF36F8F717818F80100F7
:10373000000707D4717818F8010001E007E008E0FD
:10374000C00706D0641CE4B22878A04288D8BDE83F
:10375000F88F204600F05CFBF6E700002C360020D6
:103760001C360020343300200C3600204635002063
:10377000403000202400002004ED00E02DE9F0415D
:103780000446008840F480602080E1880820FE4DD7
:103790001B296FD011DC1B2949D2DFE801F04A5206
:1037A0005B636C747C858D9BA3AFB7C048C84848E9
:1037B000484848484848D0D8E0000027F34E4429FC
:1037C00071D00BDCA1F13C014FF0010808292ED289
:1037D000DFE801F0D5F2F0EFEEEDECEB5E2973D00F
:1037E00012DC452971D0462970D05C296FD05D2943
:1037F0001DD1A18803291AD16188042968D006291E
:1038000067D0082976D062E2642974D0652973D024
:10381000FF290CD1A188012909D1DD4A6188931EB5
:1038200004296AD0052902D1207A10701F80BDE8D2
:10383000F081A188012971D161880429FBD129680F
:1038400006E0A1880129F6D161880429F3D16968CD
:10385000A1609CE2A1880129EDD161880429EAD107
:10386000A968F5E7A1880129E5D161880429E2D199
:10387000E968EDE77BE0A1880129DCD161880429B2
:10388000D9D12969E4E7A1880129D4D16188042923
:10389000D1D16969DCE7A1880129CCD161880429EB
:1038A000C9D1A969D4E779E1A1880129C3D1618887
:1038B0000429C0D1E969CBE7A1880129BBD161887E
:1038C0000429B8D1296AC3E705E283E1A5E1C9E18A
:1038D000F4E1F6E1A1880129ADD161880429AAD1DA
:1038E000696AB5E7A1880129A5D161880429A2D117
:1038F000A96AADE7E7E11CE22EE244E2A1880129D2
:1039000099D16188042996D1E96AA1E7A1880129A2
:1039100091D1618804298ED1296B99E71FE1A18893
:10392000012988D16188042985D1696B90E7A18834
:10393000012988D16188042985D1E96B88E7A188AC
:10394000012989D16188042986D1296E80E7A1885F
:10395000012984D16188042986D1696E78E7A1881C
:10396000012984D16188042987D1A96E70E7A188D3
:10397000012985D16188042987D1E96E68E7A1888A
:10398000012985D16188042904D0062905D0082998
:1039900005D008E0D5F8F0105AE7218900E0A168C9
:1039A0003C2001F08FFB3C20BFE1CAE0A5E080E0B5
:1039B00063E03DE01CE0FFE7A18801298CD161882C
:1039C000042904D0062905D0082905D008E0D5F837
:1039D000F4103DE7218900E0A1683D2001F072FB71
:1039E000D5F8F80010B100213E201AE03D209CE1FE
:1039F000A188012984D16188042904D0062905D031
:103A0000082905D008E0D5F8F81021E7218900E061
:103A1000A1683E2001F056FBD5F8F40030B100213A
:103A20003D2001F04FFB02213D20F0E03E207CE1F3
:103A3000A188012985D16188042904D0062905D0EF
:103A4000082905D008E0D5F8FC1001E7218900E03D
:103A5000A1683F2001F036FBD5F8FC0058B10021E9
:103A60003D2001F02FFB00213E2001F02BFB022125
:103A70003D2001F011FB3F2057E1A18801296ED1C3
:103A80006188042904D0062905D0082905D008E05A
:103A9000D5F80011DCE6218900E0A168402001F0A2
:103AA00011FBD5F8000110B186F80780BFE6F77169
:103AB000BDE6A188012952D16188042904D00629D4
:103AC00005D0082905D008E0D5F80411C0E6218901
:103AD00000E0A168412001F0F5FAD5F8040150B1E9
:103AE00086F80880D5F808010028DFD000214220A0
:103AF00001F0E8FA23E0377299E6A18801292ED176
:103B00006188042904D0062905D0082905D008E0D9
:103B1000D5F808119CE6218900E0A168422001F057
:103B2000D1FAD5F8080150B186F80980D5F804011A
:103B30000028BBD00021412001F0C4FADBE77772F6
:103B400075E6A18801290AD16188042904D00629D3
:103B500006D0082906D009E0D5F80C1178E696E0E1
:103B6000218900E0A168432001F0ACFAD5F80C01EE
:103B700000289BD00021412001F0A4FA002142201E
:103B800001F0A0FA377205E0343300200C36002033
:103B9000CA000020777286F80D8048E6A1880129C6
:103BA00075D16188042904D0062905D0082905D0DB
:103BB00008E0D5F810114BE6218900E0A168442007
:103BC00001F080FAD5F8140110B1002145201AE067
:103BD0004420AAE0A188012959D16188042904D090
:103BE000062905D0082905D008E0D5F814112FE6DC
:103BF000218900E0A168452001F064FAD5F81001A0
:103C000048B10021442001F05DFA02214420BDE8C2
:103C1000F04101F041BA452087E0A188012936D161
:103C20006188042904D0062905D0082905D008E0B8
:103C3000D5F818110CE6218900E0A168462001F0B2
:103C400041FAD5F8180158B10021442001F03AFAA0
:103C50000021452001F036FA0221442001F01CFA2F
:103C6000462062E0A188032909D0162995D16188F0
:103C7000042918D0062919D0082919D01CE0618818
:103C8000042905D0062906D0082906D009E058E005
:103C9000D5F87011DCE5218900E0A1685C2001F015
:103CA00011FA5C2041E0D5F8A011D1E5218900E0AE
:103CB000A168682001F006FA682036E0D5F8741192
:103CC000C6E5218900E0A1685D2001F0FBF995F8C7
:103CD0007401B071ABE5A188032909D01629F9D187
:103CE0006188042917D0062918D0082918D01BE0AC
:103CF0006188042904D0062905D0082905D008E0E8
:103D0000D5F87811A4E5218900E0A1685E2001F0D2
:103D1000D9F95E2009E0D5F8A41199E5218900E0E0
:103D2000A168692001F0CEF96920BDE8F04101F0F9
:103D3000C1B9A188012917D16188042902D00829B5
:103D400003D011E0D5F8901182E5642001F0B2F9BA
:103D5000A068C5F890016AE5A188012904D16188AD
:103D6000042906D0082907D02046BDE8F04100F01C
:103D7000ABB8D5F894116BE5652001F09BF9A0680C
:103D8000C5F8940153E5117821811988618160801B
:103D90002046BDE8F041FCF731BD000070B5018858
:103DA00001F00F02072A14D0184C0B074FF0000542
:103DB00013D0012A0CD14188012909D10079A11C15
:103DC000012819D004281ED0322801D1258008707E
:103DD00070BDBDE87040FFF7D1BC41F48061018047
:103DE00008214180D4F802104160D4F806108160A7
:103DF000FCF704FD258070BD012008702580BDE81A
:103E0000704000F0BBBF25800420E0E7C800002020
:103E10002DE9F041104E05464FF0FF31306802F0B9
:103E2000E5F90E4C2178A9420ED96019A4F16A0770
:103E300010F8013F0022FA544A1B411C521EFCF7A5
:103E4000CFF92078401E20703068BDE8F041002393
:103E50001A46194601F084BF28000020463500208C
:103E6000114810B58088FCF78BFB4FF066320F4B82
:103E7000FCF78EFA6FF00B02FCF76BFB02460B4669
:103E80000B480C49FCF77EFA0B4A0C4BFCF7F2FA94
:103E900000220B4BFCF7D5F900220A4BFCF778FA0D
:103EA000BDE81040FCF779BBC200002066660A40FE
:103EB000E17A14AE47E1F63F22FDF675E09C713FD2
:103EC0000000394000005940F0B4364908224A80C9
:103ED00002880B8862F30A030B800A8842F480622E
:103EE0000A80838801F17602002401F29C4193B19B
:103EF0000E2B28D0122B15D10389B3B3C388CC5C09
:103F000044F00104CC54C388018922F8131080794D
:103F1000F0BC00F083BE0389A3F50045023D03D049
:103F2000022B23D0F0BC7047C38802EB4302A2F8F7
:103F3000D440C2888B5C43F002038B54C08823F0CA
:103F400008020A54EEE7038983B1C4880B5D43F08D
:103F500008030B55C48843F002030B550189C08840
:103F600002EB4000A0F8D410DCE70FE0C38802EBBE
:103F70004302A2F8D440C388CA5C02F0010464F38F
:103F80000102CA54C08822F00802DAE7C5884B5DF6
:103F90005E08760066F301034B55C08822F8104096
:103FA000C0E7000040300020FDF730FBFEF706FFC1
:103FB000FEF70CFDFEF77CFCFEF786FEFEF782FDA9
:103FC000FEF72CFEFEF74EFCFEF70EFCFEF7E8FDBA
:103FD00001F0FAF901F08CF901F042F901F006FA6A
:103FE00001F008F901F0D6F800F098F8FEF786FC29
:103FF00000F0B0F8FEE700002DE9F05F06468A46C3
:10400000481E81B202253046FCF72EFC06EB0A0161
:10401000DFF8A88011F8011C814248D0BDE8F09F6C
:1040200071194A7802F07F0905EB090303F1020BCD
:10403000D3453FD25FEA89733CD100EB99036A2BE9
:1040400038D818F800301C061FD593422BD18C1C91
:10405000002708F8007015E014F8010B14F8011B94
:1040600000EB012014F8021B14F8012C090401EBE9
:1040700002610144705D01F025F8705D401C3F1D38
:104080007055FFB24F45E7D30DE04B450BD10C4ABD
:10409000891C02EB80004A46FCF7C6F818B9715D2E
:1040A000002008F801000BF0FF05554502D2705DB5
:1040B0006A28B5D3034901204870AFE74C3000208F
:1040C00034330020D400002006480078322808D07D
:1040D00004494FF6FF72891E0888904201D2401CA5
:1040E00008807047CA00002010B5EFF3058149B978
:1040F000EFF3108131B908490968022905D1EFF3BE
:10410000118111B16FF0050403E0002408B101F042
:104110006FFB204610BD000094000020EFF30580E7
:1041200058B9EFF3108040B909490868022801D056
:1041300030B109E0EFF3118030B16FF00500704746
:1041400001200860002070474FF0FF3070470000EA
:104150009400002010B5EFF3058060B9EFF31080F4
:1041600048B90B490868022802D0012806D00BE0A4
:10417000EFF3118040B16FF0050010BD0220086020
:1041800001F02CFC002010BD4FF0FF3010BD0000EE
:1041900094000020F8B514464FF00005EFF30582B7
:1041A0006ABBEFF3108252BB164A1268022A02D190
:1041B000EFF311821ABB10B309B3ACB1D4E90232E8
:1041C0006BB1502A1BD32269CAB1676900FB01F6A3
:1041D000B74214D30025009501F04BFD07E072B9FA
:1041E000226962B9626952B9002201F01EFD050020
:1041F00005D00CB1216800E0002101F097FA2846B3
:10420000F8BD00009400002070B505464FF0000492
:10421000EFF30580A0BBEFF3108088BB194800685E
:10422000022802D1EFF3118050BB0DB1686800E0A5
:104230000020C10701D0012600E0002600071FD49E
:104240006DB1D5E9021021B1502819D31EB1042057
:1042500002E020B114E0012001F0DAFC05E00EB12B
:10426000042000E0012001F0C8FC040008D00DB1DA
:10427000296800E0002101F059FA0EB144F0010470
:10428000204670BD94000020F8B50D460024211F83
:104290004E1C00280ED000BFEFF305824AB9EFF3A1
:1042A000108232B9134A1268022A17D1EFF3118231
:1042B000A2B10DB10C461BE000216A46009101F04D
:1042C00047FF012813D1009890B10B494FF080505F
:1042D0000860BFF34F8FBFF36F8F09E0294601F0ED
:1042E00085FF012804D015B16FF0010400E03446C9
:1042F0002046F8BD9400002004ED00E0F8B5144617
:1043000003460E464FF00005EFF30580E8BBEFF3E0
:104310001080D0BB24480068022802D1EFF311803E
:1043200098BB93B39E423DD84CB1A0680028E0688A
:1043300003D0502836D3012002E008B132E000203B
:10434000012B05D010B31846A26801F036FC20E01E
:1043500040B103200090002211460120A36801F023
:1043600088FC04E003220021012001F05EFC05002E
:1043700018D086B100231A46194601F0F1FC012835
:1043800009D0284601F0E6F900250BE0184601F0B7
:10439000F7FB050006D00CB1216800E0002128469B
:1043A00001F0C4F92846F8BD9400002038B5002477
:1043B000E51E002804D000BFEFF3058169B902E0D3
:1043C0006FF0030423E0EFF3108131B9114909685C
:1043D000022914D1EFF3118189B1002100916946BE
:1043E00001F0CCFD012811D1009880B10A494FF0AD
:1043F00080500860BFF34F8FBFF36F8F07E000233B
:104400001A46194601F0ACFC012800D02C46204683
:1044100038BD00009400002004ED00E0F0B585B048
:104420004FEA01034FF00004EFF305810394A1BBB1
:10443000EFF3108189BB21490968022902D1EFF30A
:10444000118151BB48B3802618218DF8104004AD6E
:1044500042B3176807B13D4697691FB139467F1EC1
:10446000382F02D21779FF0702D0002005B0F0BD27
:10447000576907B1BE08D2F808C0BCF1000F0DD0D3
:10448000D4685C2C18D312693AB137B18DE80610A4
:104490003246294601F0CDFF03900DE0D7685FB9A1
:1044A00012694AB903AACDE90012B2B2294601F055
:1044B00093FF012800D003940398D7E794000020CD
:1044C0002DE9F041134C0F46054666692068001D32
:1044D00001F032F8681C07D137B12168BDE8F0411E
:1044E0000D48091D01F078B820683544B542456093
:1044F000216805D2A068BDE8F041091D01F054B85B
:104500006068091D01F050F8206B854200D22563D8
:10451000BDE8F081440000205C0800202DE9F04156
:10452000054601F065F82D4C2069401C206120688B
:104530002B4F10B1E06930B32BE0256020690128D2
:1045400027D1002606EB860007EB800001F01EF85D
:10455000761C382EF6D3234801F018F82148143081
:1045600001F014F81F48283001F010F81D483C30C5
:1045700001F00CF81B48503001F008F81948606051
:104580001430A06005E02068E96AC06A884200D85B
:104590002560E06A401CE0626864E86AA1698842BC
:1045A00000D9A06100EB800007EB8000291D01F01D
:1045B00013F801F03DF8E06900280CD02068E96AA2
:1045C000C06A884207D208494FF080500860BFF3A4
:1045D0004F8FBFF36F8FBDE8F081000044000020D3
:1045E000AC0300200C08002004ED00E038B500F01A
:1045F000FFFF104CA068C8B90F4800F0C7FF0E4875
:10460000143000F0C3FF0C482060143060600A4B87
:1046100000202833009003F1500210210A2001F0FD
:1046200028FBA06010B105A101F080F8BDE838407A
:1046300000F0FEBF8000002070080020546D725111
:104640000000000030B4026C0B46002A0BD0C16899
:104650001144C1604468A14201D30168C16030BC0B
:104660001846FBF7BDBD30BC70472DE9F041856BA6
:10467000174604460026026C82B1C7B1E068FBF71A
:10468000AFFDE168206C091AE1602268914202D214
:104690006168081AE060022F16D017E02068A8B9F8
:1046A000606801F069FF0646002060600EE0A068C7
:1046B000FBF796FD216CA0680844A0606168884201
:1046C00004D32068A06001E005B16D1E6D1CA563D8
:1046D0003046BDE8F08110B5044690F8590058B155
:1046E00001280CD002280FD0502080F31188BFF38E
:1046F0004F8FBFF36F8FFEE7206B00F0ADFF2046BA
:10470000BDE8104000F0A8BF10BD000010484FF4F5
:104710000051420706D0C01D0D4920F00700411A84
:10472000C1F500510B4A00230144C2E900030839D6
:10473000103A21F0070111604B600B600B1AC0E9C1
:10474000001393604FF000405360D060704700004A
:1047500040100020A8000020144E154CA6F29C47E3
:104760004FF08058DFF84C9012E000BF00F040FF9F
:10477000F068C568281D00F0DFFE2069401E20613A
:10478000E068401EE06000F053FF2846FFF7A3FFFB
:10479000E0680028EAD138680128F9D9C9F8008012
:1047A000BFF34F8FBFF36F8FF2E700004808002080
:1047B0004400002004ED00E0002807D00021416003
:1047C00001600B460A46C16001F0CABA704700009A
:1047D00070B51D46049C51B1C4F80020C4E90F0116
:1047E0000121204601F078FA84F84C5070BD246015
:1047F000F4E72DE9F0470E46DDE9098417468246C5
:1048000091009946089DA522206BFBF7FBFC6FF0F9
:104810000301206B01EB8701084420F007077807AC
:1048200007D0502080F31188BFF34F8FBFF36F8FF5
:10483000FEE72218315C82F83410315C11B1401C63
:104840001028F6D3002684F84360382D00D337258E
:10485000E562C4E91356201D00F0A3FE04F1180020
:1048600000F09FFE2461C5F138006462A0616665B6
:1048700084F858604A465146384600F06DFA206088
:10488000B8F1000F01D0C8F80040BDE8F087000083
:1048900030B5114900E011460A688242FBD34B68EB
:1048A0005C18844203D14068184448600846436855
:1048B0001C18944209D1084C103C2468A24209D02B
:1048C00052681A4442600A6812680260814200D04D
:1048D000086030BD0460F9E7A800002070B500242E
:1048E00041600B4D0061914206D8D11A8269914214
:1048F00006D2011D686807E09A4203D2994201D3AB
:10490000012403E0011D286800F04EFE204670BD22
:104910008000002010B5044600F06AFEA06B28B1AC
:104920005FF0000400F084FE204610BD0124F9E78A
:1049300030B589B0304D55E00498002806DADDE93D
:104940000601059A9047049800284BDB069C606995
:1049500010B1201D00F0F0FD02A800F0B9F80246E9
:1049600004980A283ED2DFE800F00505053D263709
:1049700005053D260598A169034601442046FFF739
:10498000ADFF00B3616A20468847E069012829D15C
:10499000002000900598A16900234218194620467E
:1049A00001F030FF78B9502080F31188BFF34F8FAA
:1049B000BFF36F8FFEE70598A06128B181181346F9
:1049C0002046FFF78BFF0DE0502080F31188BFF3E6
:1049D0004F8FBFF36F8FFEE794F82C0010B920467D
:1049E00000F03AFE002204A9A86801F015FB002897
:1049F000A2D109B030BD0000800000202DE9FC41AB
:104A00000F46054601F02EF801A800F061F80446B3
:104A1000019818B101F064FEBDE8FC81224EAFB1EF
:104A200070680068A8B30027291B3A46B06800F0F8
:104A3000BDFE01F055FE0028EED11C494FF080501C
:104A40000860BFF34F8FBFF36F8FE5E7A542EBD848
:104A500001F046FE30682746C068C468201D00F09B
:104A60006BFDE069012810D1A0692B4641193A4637
:104A70002046FFF733FF40B1002003460146009077
:104A80002A46204601F0BEFE20B1616A20468847D2
:104A9000C2E707E0502080F31188BFF34F8FBFF3C8
:104AA0006F8FFEE70127BFE78000002004ED00E0E4
:104AB00006484168096829B14168C968C9684968F8
:104AC000016370474FF0FF31FAE700004400002017
:104AD00070B5054601F0E6FC064E04463069844296
:104AE00003D200F009F8012000E0002028602046F1
:104AF000346170BD80000020F8B5194D1FE0C0681A
:104B0000C4680668201D00F017FD616A20468847CA
:104B1000E069012813D1A0693044B04206D924616C
:104B20006060211D286800F03FFD08E0002003467A
:104B3000014600903246204601F064FE38B12868F4
:104B400001680029DBD16968C5E90010F8BD502073
:104B500080F31188BFF34F8FBFF36F8FFEE7000024
:104B60008000002008484068401C4FF0500080F34F
:104B7000118804D0BFF34F8FBFF36F8FFEE7BFF3F1
:104B80004F8FBFF36F8FFEE7B0000020074C206807
:104B9000016841B1C0680021D0F80000FFF72EFF86
:104BA000FFF7C6FEF3E701210020F7E780000020B1
:104BB0002DE9F041044600F01BFD94F9455004F145
:104BC000240609E0606A48B1304601F051FD08B1A1
:104BD00000F082FE6D1E6DB2002DF3DC4FF0FF364B
:104BE00084F8456000F024FD00F002FD94F9445083
:104BF00004F1100709E0206948B1384601F038FD9A
:104C000008B100F069FE6D1E6DB2002DF3DC84F872
:104C10004460BDE8F04100F00BBD000070B5104DE0
:104C200004464FF0FF31286801F0E0FA0D490A5DB3
:104C3000500714D401F16A0003786A2B0FD2461C86
:104C40009C5503785B1C037042F0040008552868EB
:104C5000BDE8704000231A46194601F081B870BDC6
:104C600028000020DC3400202DE9F0410546002713
:104C700000F0F8FE314E306808B9FFF747FDF068E4
:104C800005424BD1C5B3083568070ED005F00700C3
:104C9000C0F108000544680707D0502080F3118850
:104CA000BFF34F8FBFF36F8FFEE72DB37068854260
:104CB00034D82248103001460C6801E020460C46EA
:104CC0006168A94202D221680029F7D131688C427B
:104CD00024D007682168016060680837411B1029EB
:104CE0000FD96019420708D0502080F31188BFF314
:104CF0004F8FBFF36F8FFEE710E041606560FFF7F5
:104D0000C7FD61687068401A7060B268904200D256
:104D1000B060F06801430020C4E9000101F0E0FC4C
:104D2000780707D0502080F31188BFF34F8FBFF36F
:104D30006F8FFEE73846BDE8F08100009800002044
:104D40000449086818B10868026D521C02650868B9
:104D5000704700004400002010B5031F4FF080741E
:104D60001C601B1F21F001011960191F024B0B6011
:104D7000143940380A6010BD654B0008F0B5104B7F
:104D80000E4803F16A0200210170084602F5D4744E
:104D900002F27E2502F22646195402EB400722F861
:104DA0001010A7F8D41024F8101045F82010315432
:104DB000401CC0B26A28EFD3F0BD00004635002089
:104DC0004C30002030B51B49194A0C6892F82C0071
:104DD0006368C31A184885781D44857045782B444C
:104DE00043704378C82B01D3002343704378857800
:104DF000AB4201D9437800E083782568C3F1C8034A
:104E0000DBB225F00105256093850C6863601268AC
:104E10000B68121D9A6042780748C01C10440A684B
:104E2000D0600868016841F00101016030BD0000F8
:104E300054020020E00200203C3600200A4A10B54F
:104E400013681C6824F001041C601368596007494A
:104E500013680968091D99601168C86010680168C5
:104E600041F00101016010BD9C02002054020020AD
:104E70002DE9F04122484FF0FF310068FFF704FAB6
:104E8000204C214DE61C04F1CB080027A0B3BDE85F
:104E9000F0812078C82800D32770A8680102207804
:104EA000805D0843A860A97879B12278935D08F8FD
:104EB0000130491C154AC9B2A970B2EB102F12D1AA
:104EC0001048CB30FFF798F80FE080B2A0F56B41A7
:104ED00090390BD1EB2188F80010902188F801104F
:104EE0000220A87002E0502900D3AF702078401C47
:104EF0002070A078401EA070A0780028C9D1C6E715
:104F00002C0000203C360020D400002001FFFF00D0
:104F10002DE9F0474A4E02257079401CC0B27071ED
:104F2000642802D2707800287ED000204549707035
:104F30007071098841F27072434C914207D943491C
:104F40000A78002A5CD00870FFF718FF58E0B1F526
:104F5000C87F0DD93D21A1700821E17020716071D9
:104F6000A071E07120726072A072E0720C2547E0BF
:104F7000002000F085F80321022000F06FF80720E0
:104F800000F07EF80F2000F07BF81A2000F078F88F
:104F9000642000F075F8652000F072F80027DFF853
:104FA000B080DFF8B09028E018F8073019F8032037
:104FB0000AB35FEA026C16D402EB050CBCF1540F85
:104FC0001ED863556D1CE8B22254401CC5B222485D
:104FD00000EB83016019FBF703F918F8071019F8C3
:104FE0000100284406E0542D0AD863556D1CE8B230
:104FF0002254401CC5B27F1CFFB230788742D3D305
:10500000EB20207090206070FF2161556D1CE8B28C
:105010002154401CC0B201212154401CC5B2294674
:105020000948FBF721FC00E007E060556D1CE9B280
:10503000BDE8F0470448FFF701BFBDE8F087000076
:10504000D4000020C800002057370020CA000020EC
:10505000F06900084C3000203433002042186A2ADE
:105060000BD8002909D01E2907D2044A135C002B53
:1050700003D1802303EB8101115470474C30002091
:105080006A2805D203490A5C002A01D184220A5405
:10509000704700004C30002042186A2A06D80029C8
:1050A00004D01E2902D2024A890011547047000020
:1050B0004C3000206A2802D2014A04211154704762
:1050C0004C300020F8B56A2826D22E4A52F82030FB
:1050D0008B4221D042F8201002F5D472165CB3073F
:1050E0001AD5A2F226445FEA467C4FF0000704EB93
:1050F0004005A2F27E2313D5B5F8D4506DB134F833
:10510000101033F810400C1BA54202DA491B23F89B
:10511000101046F008011154F8BD23F810700BE090
:10512000B5F8D44044B146F00801115423F810708A
:10513000BDE8F840FFF772BD134A13885B05EBD05A
:1051400008235380138823F00F03DB1D138013887B
:1051500043F4806313809780D08091600B480023D4
:105160006A460949006800F0ABFE00980028D3D0D9
:1051700007494FF080500860BFF34F8FBFF36F8F28
:10518000F8BD00003433002040300020240000200F
:1051900004ED00E010B51248FBF786FB11480168EA
:1051A0000A6822F004020A6001680A6842F00802F4
:1051B0000A600068016841F0020101600848006867
:1051C0008168094A114381600020084B084A014662
:1051D00023F8101042F82010401C0328F8DB10BD03
:1051E000E00000201001002001011000C20000209A
:1051F000C03500200E4810B5016800248C6300689B
:10520000C46304210A48FDF7F1F908210848FDF7B5
:10521000EDF9084801688C6300684463042105487F
:10522000FCF76EFEBDE8104000210248FCF768BEA6
:105230000C0200207C010020084810B54FF0FF321E
:105240000549006800F0E8FE002804D0BDE81040E1
:105250000148FEF7A3BD10BD00360020200000204D
:1052600030B5440B204D64038BB04FF48041284689
:1052700004F54064FCF7B2F960F34D344FF400419B
:105280002846FCF7ABF960F38E34A0B220F400415D
:10529000B0B220F0070020F4F07040F0180040F4A5
:1052A0007E4200200590069000910790CDE9011202
:1052B000CDE903200121CDE9081069460B48FBF731
:1052C0002BFD08B1FBF7EDFA0848FCF735F808B1FB
:1052D000FBF7E7FA02210548FBF7A4FC002801D000
:1052E000FBF7DFFA0BB030BD001001405401002085
:1052F000064800210122017041708170C170027165
:10530000427181711421C17170470000CA000020F0
:10531000F0B52B4A15682869C3072A48A0F1100187
:1053200005D043885B1C43804B885B1C4B802B69FA
:105330004FF001041E074FF000031BD52E6A86F4C0
:1053400000762E62857B6DB11668F56BADB2058077
:10535000366AB7051B4E0768B689A7EB060606D561
:10536000866005E01568ED6B8581847302E0466018
:1053700085814380106805696D071DD5056A85F034
:1053800020050562887B78B11468A06B80B2088024
:10539000246AA5060B4C0D68A4F11004A489A5EBA2
:1053A000040406D58C6005E01068806B88818C73DE
:1053B00002E04C6088814B8010680361F0BD000002
:1053C000C40100202C36002010B5074C00224FF4F9
:1053D00000712046FCF707F920460122BDE8104085
:1053E0009102FCF700B900000008014010B5064822
:1053F000FCF720FE04210448FCF7A6FFBDE810409E
:1054000008210148FCF7A0BFC4010020084810B5DE
:1054100000680168C90609D501684068FFF7D2FC39
:1054200004480068BDE81040FEF7C0BF10BD000092
:10543000540200202C0000200748C06B0168890539
:1054400005D5416841F400714160FFF7BBBC4FF0E6
:10545000FF31416070470000E002002032490868D7
:10546000026822F0040202600868026842F0080242
:1054700002600868026842F002020260086802687E
:1054800022F00102026029480268136823F0040335
:1054900013600268136823F008031360026813683E
:1054A00023F0020313600068026822F00102026028
:1054B0001F480268D36843F01003D3600268D368C2
:1054C00043F00403D3600268D36843F00803D36059
:1054D0000268D36823F02003D3600268D36823F006
:1054E0004003D3600268536943F04003536102688C
:1054F000536943F0800353610E4B00225A701A70B7
:105500009A70C82282850B685A6000680A68001D7C
:10551000906008480A68C01CD0600868016841F0C3
:105520000101016070470000E00200209C020020A1
:10553000540200203C360020D0E9013201699A6013
:10554000D0E901235A604A68824201D182684A60E8
:10555000002202610868401E086008687047000069
:10556000034B036003F15C0008608020106070470B
:1055700088090020044B036003F15C0008604FF4CD
:105580008070106070470000E40B002000F10801FB
:105590004FF0FF32C0E90112C160016100210160DA
:1055A000704700210161704730B50B685A1C02D06A
:1055B00000F1080202E0026904E02246546825680E
:1055C0009D42FAD953684B6099608A6051600861C6
:1055D0000168491C016030BD42684A6093688B6075
:1055E00093685960916008610168491C01607047C7
:1055F000502080F31188BFF34F8FBFF36F8F0A499C
:105600004868401C486001280CD10848006810F028
:10561000FF0F07D0502080F31188BFF34F8FBFF3E7
:105620006F8FFEE770470000B000002004ED00E03F
:105630000849486828B1401E486001D180F31188AC
:105640007047502080F31188BFF34F8FBFF36F8FE7
:10565000FEE70000B000002070B5002827D0144DF0
:10566000A0F108046168E868014207D1502080F386
:105670001188BFF34F8FBFF36F8FFEE722683AB1F7
:10568000502080F31188BFF34F8FBFF36F8FFEE779
:105690008143616000F0E6F9606869680844686009
:1056A0002046FFF7F5F8BDE8704001F019B870BD6D
:1056B000980000204FF0E020002101618161054940
:1056C0004FF47A720968B1FBF2F1491E416107217A
:1056D000016170474000002010B5FAF75BFD1149E9
:1056E00010280ED300F1E02090F8F0030A789042E1
:1056F00007D2502080F31188BFF34F8FBFF36F8F15
:10570000FEE709480068896800F4E060884207D92C
:10571000502080F31188BFF34F8FBFF36F8FFEE7E8
:1057200010BD0000B00000200CED00E010B5084BEB
:10573000002200BF53F832401CB1521C082AF9D392
:1057400010BD43F8321003EBC201486010BD0000E9
:105750006C03002010B504000AD000F013F894F890
:10576000460000280CD12046BDE81040FFF774BF6A
:10577000502080F31188BFF34F8FBFF36F8FFEE788
:1057800010BD0000084A002102EBC1035B688342A0
:1057900006D1002042F8310002EBC1014860704799
:1057A000491C0829F0D370476C03002070B51546DA
:1057B0000E460446FFF71CFF94F944100020491CD4
:1057C00001D184F8440094F94510491C01D184F8B2
:1057D0004500FFF72DFFA06B28B92A46314604F19A
:1057E000240000F097F82046BDE87040FFF7E0B9CC
:1057F00010B5020014D00F48806B38B1502080F3F0
:105800001188BFF34F8FBFF36F8FFEE700F02AF9C7
:1058100000211046FEF754FE00F062FF002807D179
:1058200005494FF080500860BFF34F8FBFF36F8F73
:1058300010BD00004400002004ED00E070B50D46EE
:1058400004000BD095B11E4A906BB8B1502080F384
:105850001188BFF34F8FBFF36F8FFEE7502080F3A7
:105860001188BFF34F8FBFF36F8FFEE7502080F397
:105870001188BFF34F8FBFF36F8FFEE700F0F2F890
:10588000526923685919934204D98B420AD991422B
:1058900002D807E08B42FAD9881A21600021FEF76E
:1058A0000FFE00E0216000F01BFF002807D1054932
:1058B0004FF080500860BFF34F8FBFF36F8F70BD04
:1058C0004400002004ED00E002498A6A0260496950
:1058D0004160704744000020014901204862704740
:1058E0004400002010B50C4650B109490968183130
:1058F000FFF75AFE2046BDE810400121FEF7E0BD4B
:10590000502080F31188BFF34F8FBFF36F8FFEE7F6
:105910004400002070B514460D4668B10A49096874
:105920001831FFF759FE0CB14FF0FF3521462846DC
:10593000BDE87040FEF7C4BD502080F31188BFF36E
:105940004F8FBFF36F8FFEE74400002070B5040057
:105950003ED0226DA2B1E06C884200D30146E06ADD
:10596000884235D0012A33D11A4D2A6894420FD18A
:10597000502080F31188BFF34F8FBFF36F8FFEE786
:10598000502080F31188BFF34F8FBFF36F8FFEE776
:10599000E162A269002A02DBC1F13801A1610E4E69
:1059A00000EB8000616906EB8000814210D1201D70
:1059B000FFF7C2FDE06AA969884200D9A86100EB3F
:1059C000800006EB8000211DBDE87040FFF704BE9B
:1059D00070BD000044000020AC03002030B587B04B
:1059E0000024039405AA04A903A80494FFF7B8FDB2
:1059F000DDE903010094CDE90110002315A117484A
:105A0000059A00F016FD164D002868631FD000F0BF
:105A1000C9FE012809D0401C19D1502080F31188FB
:105A2000BFF34F8FBFF36F8FFEE7502080F31188D5
:105A3000BFF34F8FBFF36F8F4FF0FF30286301200C
:105A4000E8616C6107B0BDE8304000F045B807B0D0
:105A500030BD000049444C45000000005947000893
:105A6000440000200248816B491C8163704700009C
:105A700044000020164810B5816B11B1012141622C
:105A800010BD002141628169124A01E0B9B1491E8D
:105A900001EB810352F82330002BF7D001EB810397
:105AA00002EB830202F1080453685B685360A3426F
:105AB00001D15B685360DA680260816110BD5020DB
:105AC00080F31188BFF34F8FBFF36F8FFEE70000A5
:105AD00044000020AC0300201CB526490878019042
